:030000000201AC4E
:0C01AC00787FE4F6D8FD7581490201F36C
:10041200C100014300014400044600000000012124
:0404220000012200B3
:09042700D2A1D2A0120430C2A03F
:0A043000E4FEEEC39F50030E80F8B7
:01043A00229F
:10034300E4F508D2AF7F0AFE12023812043B12030F
:10035300FC1202FE8F451202B13000F5C2007B0091
:100363007A0079231200007B007A007923E4FDFFF1
:100373001203B77B007A0079337D01E4FF1203B7E0
:0203830080CF29
:1002FE007D01C2B1C2A2E4FC0CBC0AFCC2A07F020A
:10030E00120430120427120427D2A1D2A0120430F4
:10031E00C2A0C2A1D2A2120429E4FCD2A07F021272
:10032E00042BED25E0FFA2A2E4334FFD0CBC08EB3D
:04033E00D2B1AF0584
:010342002298
:0703DF00120027EF2430FF9C
:1003E6008F9974232521F8A607E521045403F521E6
:0503F6003099FDC299E1
:0103FB0022DF
:1002B100AF457E007C037DE81203DFAF457E007C05
:1002C100037DE81200277E007F64CFCDCFCECCCE58
:1002D1001203DFE54575F06484E5F075F00A8424C6
:1002E10030FF1203E6E54575F00A84E5F02430FF9E
:0D02F1001203E67F0D1203E67F0A0203E60A
:1003FC00759850E4F587758920D2AFD2AC758BFD1A
:06040C00758DFDD28E2269
:10023800750C00750B10750A0E750900E4FCFDAB12
:100248000CAA0BA90AA80912007CE47BE87A03F936
:10025800F81201078F0C8E0B8D0A8C09C3E4950CDC
:10026800F50CE4950BF50B7401950AF50AE495096C
:10027800F509E50C240CF50CE4350BF50BE4350A0F
:10028800F50AE43509F509AF0CAE0BAD0AFC7808A0
:100298001201998F43850C445389F04389018543A2
:0802A8008C85448AD2A9D28C96
:0102B000222B
:10044F007590FFC290D291D295AF90C295EF20E7F1
:01045F00F6A6
:010460002279
:10047300AE0712044FC290C2918E90D295C29522BC
:10048300AE0712044FD290C2918E90D295C295229C
:10046100ED7004AC078004EF2440FCEC4480FF02F3
:02047100047312
:1003B7008B098A0A890B120461AB09AA0AA90B12D5
:1003C700000E6013050BE50B7002050A14F9120005
:0803D7000EFF12048380E222F4
:10043B007F381204737F0C1204737F061204737FD0
:04044B000102047333
:03000B0002038568
:04038500C0E0C0D044
:1003890085438C85448A0522E522C39464401A7505
:100399002200D200E5492401F549E43548F548E44D
:0903A9003547F547E43546F546F9
:0503B200D0D0D0E032C4
:1001B800020343E493A3F8E493A34003F68001F217
:1001C80008DFF48029E493A3F85407240CC8C33348
:1001D800C4540F4420C8834004F456800146F6DF17
:1001E800E4800B0102040810204080900412E47E91
:1001F800019360BCA3FF543F30E509541FFEE4930C
:10020800A360010ECF54C025E060A840B8E493A3D2
:10021800FAE493A3F8E493A3C8C582C8CAC583CAFD
:10022800F0A3C8C582C8CAC583CADFE9DEE780BEB5
:0104260000D5
:10000E00BB010689828A83E0225002E722BBFE02F0
:09001E00E32289828A83E4932223
:10002700BC000BBE0029EF8DF084FFADF022E4CCBD
:10003700F875F008EF2FFFEE33FEEC33FCEE9DEC86
:10004700984005FCEE9DFE0FD5F0E9E4CEFD22EDCC
:10005700F8F5F0EE8420D21CFEADF075F008EF2F16
:10006700FFED33FD4007985006D5F0F222C398FD07
:050077000FD5F0EA22A4
:10007C00E88FF0A4CC8BF0A42CFCE98EF0A42CFC23
:10008C008AF0EDA42CFCEA8EF0A4CDA8F08BF0A4A1
:10009C002DCC3825F0FDE98FF0A42CCD35F0FCEB00
:1000AC008EF0A4FEA9F0EB8FF0A4CFC5F02ECD39C5
:0F00BC00FEE43CFCEAA42DCE35F0FDE43CFC2232
:1000CB0075F008758200EF2FFFEE33FECD33CDCCEC
:1000DB0033CCC58233C5829BED9AEC99E58298406F
:1000EB000CF582EE9BFEED9AFDEC99FC0FD5F0D64C
:1000FB00E4CEFBE4CDFAE4CCF9A88222B800C1B976
:10010B000059BA002DEC8BF084CFCECDFCE5F0CBB3
:10011B00F97818EF2FFFEE33FEED33FDEC33FCEBEC
:10012B0033FB10D703994004EB99FB0FD8E5E4F9A7
:10013B00FA227818EF2FFFEE33FEED33FDEC33FC94
:10014B00C933C910D7059BE99A4007EC9BFCE99A88
:10015B00F90FD8E0E4C9FAE4CCFB2275F010EF2FCD
:10016B00FFEE33FEED33FDCC33CCC833C810D707CD
:10017B009BEC9AE899400AED9BFDEC9AFCE899F808
:0E018B000FD5F0DAE4CDFBE4CCFAE4C8F9229B
:10019900E8600FECC313FCED13FDEE13FEEF13FF44
:0301A900D8F12268
:00000001FF
